{
  "contractName": "SmartShares",
  "abi": [
    {
      "inputs": [],
      "stateMutability": "nonpayable",
      "type": "constructor"
    },
    {
      "inputs": [
        {
          "internalType": "uint256",
          "name": "",
          "type": "uint256"
        }
      ],
      "name": "assets",
      "outputs": [
        {
          "internalType": "string",
          "name": "name",
          "type": "string"
        },
        {
          "internalType": "uint256",
          "name": "sharePrice",
          "type": "uint256"
        },
        {
          "internalType": "address",
          "name": "ttp",
          "type": "address"
        },
        {
          "internalType": "bool",
          "name": "isTtpSet",
          "type": "bool"
        }
      ],
      "stateMutability": "view",
      "type": "function",
      "constant": true
    },
    {
      "inputs": [],
      "name": "owner",
      "outputs": [
        {
          "internalType": "address",
          "name": "",
          "type": "address"
        }
      ],
      "stateMutability": "view",
      "type": "function",
      "constant": true
    },
    {
      "inputs": [
        {
          "internalType": "string",
          "name": "name",
          "type": "string"
        },
        {
          "internalType": "uint256",
          "name": "sharePrice",
          "type": "uint256"
        },
        {
          "internalType": "uint256[]",
          "name": "percentages",
          "type": "uint256[]"
        },
        {
          "internalType": "address[]",
          "name": "addresses",
          "type": "address[]"
        }
      ],
      "name": "addAsset",
      "outputs": [],
      "stateMutability": "nonpayable",
      "type": "function"
    },
    {
      "inputs": [],
      "name": "listAssets",
      "outputs": [
        {
          "internalType": "string[]",
          "name": "",
          "type": "string[]"
        },
        {
          "internalType": "uint256[]",
          "name": "",
          "type": "uint256[]"
        }
      ],
      "stateMutability": "view",
      "type": "function",
      "constant": true
    },
    {
      "inputs": [
        {
          "internalType": "string",
          "name": "name",
          "type": "string"
        }
      ],
      "name": "listShareHolders",
      "outputs": [
        {
          "internalType": "address[]",
          "name": "",
          "type": "address[]"
        }
      ],
      "stateMutability": "view",
      "type": "function",
      "constant": true
    },
    {
      "inputs": [
        {
          "internalType": "string",
          "name": "name",
          "type": "string"
        }
      ],
      "name": "getSharePrice",
      "outputs": [
        {
          "internalType": "uint256",
          "name": "",
          "type": "uint256"
        }
      ],
      "stateMutability": "view",
      "type": "function",
      "constant": true
    },
    {
      "inputs": [
        {
          "internalType": "string",
          "name": "name",
          "type": "string"
        },
        {
          "internalType": "uint256",
          "name": "newSharePrice",
          "type": "uint256"
        }
      ],
      "name": "changeSharePrice",
      "outputs": [],
      "stateMutability": "nonpayable",
      "type": "function"
    },
    {
      "inputs": [
        {
          "internalType": "string",
          "name": "name",
          "type": "string"
        },
        {
          "internalType": "address",
          "name": "ttp",
          "type": "address"
        }
      ],
      "name": "addTTP",
      "outputs": [],
      "stateMutability": "nonpayable",
      "type": "function"
    },
    {
      "inputs": [
        {
          "internalType": "string",
          "name": "name",
          "type": "string"
        }
      ],
      "name": "getMyShares",
      "outputs": [
        {
          "internalType": "uint256",
          "name": "",
          "type": "uint256"
        }
      ],
      "stateMutability": "view",
      "type": "function",
      "constant": true
    },
    {
      "inputs": [
        {
          "internalType": "string",
          "name": "name",
          "type": "string"
        }
      ],
      "name": "percentageSelling",
      "outputs": [
        {
          "internalType": "uint256",
          "name": "",
          "type": "uint256"
        }
      ],
      "stateMutability": "view",
      "type": "function",
      "constant": true
    },
    {
      "inputs": [
        {
          "internalType": "string",
          "name": "name",
          "type": "string"
        },
        {
          "internalType": "uint256",
          "name": "percentageSelling",
          "type": "uint256"
        }
      ],
      "name": "sellShares",
      "outputs": [],
      "stateMutability": "nonpayable",
      "type": "function"
    },
    {
      "inputs": [
        {
          "internalType": "string",
          "name": "name",
          "type": "string"
        }
      ],
      "name": "getShareSellers",
      "outputs": [
        {
          "internalType": "address[]",
          "name": "",
          "type": "address[]"
        },
        {
          "internalType": "uint256",
          "name": "",
          "type": "uint256"
        }
      ],
      "stateMutability": "view",
      "type": "function",
      "constant": true
    },
    {
      "inputs": [
        {
          "internalType": "string",
          "name": "name",
          "type": "string"
        },
        {
          "internalType": "uint256",
          "name": "percentage",
          "type": "uint256"
        },
        {
          "internalType": "address",
          "name": "seller",
          "type": "address"
        }
      ],
      "name": "transferShares",
      "outputs": [],
      "stateMutability": "payable",
      "type": "function",
      "payable": true
    }
  ],
  "bytecode": "0x608060405234801561001057600080fd5b50336000806101000a81548173ffffffffffffffffffffffffffffffffffffffff021916908373ffffffffffffffffffffffffffffffffffffffff160217905550612d09806100606000396000f3fe6080604052600436106100c25760003560e01c806392f2a0a11161007f578063caff564c11610059578063caff564c1461027d578063cf35bdd0146102a6578063e1c7e88c146102e6578063eadeb9a314610324576100c2565b806392f2a0a1146101c6578063c0ba5fab14610203578063c14b389a14610240576100c2565b806306ea3e09146100c75780631f9f6ae9146100f05780633df52c95146101195780634bc84131146101355780637e6b1a681461015e5780638da5cb5b1461019b575b600080fd5b3480156100d357600080fd5b506100ee60048036038101906100e99190611cca565b610350565b005b3480156100fc57600080fd5b5061011760048036038101906101129190611d84565b61048a565b005b610133600480360381019061012e9190611de0565b61068f565b005b34801561014157600080fd5b5061015c60048036038101906101579190611fda565b610a38565b005b34801561016a57600080fd5b5061018560048036038101906101809190612095565b610d9d565b604051610192919061219c565b60405180910390f35b3480156101a757600080fd5b506101b0610ea9565b6040516101bd91906121cd565b60405180910390f35b3480156101d257600080fd5b506101ed60048036038101906101e89190612095565b610ecd565b6040516101fa91906121f7565b60405180910390f35b34801561020f57600080fd5b5061022a60048036038101906102259190612095565b610f95565b60405161023791906121f7565b60405180910390f35b34801561024c57600080fd5b5061026760048036038101906102629190612095565b61101d565b60405161027491906121f7565b60405180910390f35b34801561028957600080fd5b506102a4600480360381019061029f9190611cca565b611155565b005b3480156102b257600080fd5b506102cd60048036038101906102c89190612212565b61144e565b6040516102dd94939291906122e2565b60405180910390f35b3480156102f257600080fd5b5061030d60048036038101906103089190612095565b611543565b60405161031b92919061232e565b60405180910390f35b34801561033057600080fd5b506103396117f5565b604051610347929190612528565b60405180910390f35b60008061035c846119e2565b9150915060011515811515146103a7576040517f08c379a000000000000000000000000000000000000000000000000000000000815260040161039e906125ab565b60405180910390fd5b3373ffffffffffffffffffffffffffffffffffffffff16600183815481106103d2576103d16125cb565b5b906000526020600020906005020160030160009054906101000a900473ffffffffffffffffffffffffffffffffffffffff1673ffffffffffffffffffffffffffffffffffffffff161461045a576040517f08c379a00000000000000000000000000000000000000000000000000000000081526004016104519061266c565b60405180910390fd5b826001838154811061046f5761046e6125cb565b5b90600052602060002090600502016002018190555050505050565b60008054906101000a900473ffffffffffffffffffffffffffffffffffffffff1673ffffffffffffffffffffffffffffffffffffffff163373ffffffffffffffffffffffffffffffffffffffff1614610518576040517f08c379a000000000000000000000000000000000000000000000000000000000815260040161050f906126d8565b60405180910390fd5b600080610524846119e2565b91509150600115158115151461056f576040517f08c379a0000000000000000000000000000000000000000000000000000000008152600401610566906125ab565b60405180910390fd5b6000151560018381548110610587576105866125cb565b5b906000526020600020906005020160030160149054906101000a900460ff161515146105e8576040517f08c379a00000000000000000000000000000000000000000000000000000000081526004016105df90612744565b60405180910390fd5b82600183815481106105fd576105fc6125cb565b5b906000526020600020906005020160030160006101000a81548173ffffffffffffffffffffffffffffffffffffffff021916908373ffffffffffffffffffffffffffffffffffffffff1602179055506001808381548110610661576106606125cb565b5b906000526020600020906005020160030160146101000a81548160ff02191690831515021790555050505050565b60008061069b856119e2565b9150915060011515811515146106e6576040517f08c379a00000000000000000000000000000000000000000000000000000000081526004016106dd906125ab565b60405180910390fd5b83670de0b6b3a764000060018481548110610704576107036125cb565b5b9060005260206000209060050201600201546107209190612793565b61072a9190612793565b34101561076c576040517f08c379a000000000000000000000000000000000000000000000000000000000815260040161076390612839565b60405180910390fd5b8360018381548110610781576107806125cb565b5b906000526020600020906005020160010160008573ffffffffffffffffffffffffffffffffffffffff1673ffffffffffffffffffffffffffffffffffffffff1681526020019081526020016000206001015411610813576040517f08c379a000000000000000000000000000000000000000000000000000000000815260040161080a906128cb565b60405180910390fd5b8360018381548110610828576108276125cb565b5b906000526020600020906005020160010160008573ffffffffffffffffffffffffffffffffffffffff1673ffffffffffffffffffffffffffffffffffffffff168152602001908152602001600020600101600082825461088891906128eb565b925050819055508273ffffffffffffffffffffffffffffffffffffffff166108fc349081150290604051600060405180830381858888f193505050501580156108d5573d6000803e3d6000fd5b5083600183815481106108eb576108ea6125cb565b5b906000526020600020906005020160010160003373ffffffffffffffffffffffffffffffffffffffff1673ffffffffffffffffffffffffffffffffffffffff16815260200190815260200160002060000181905550600060018381548110610956576109556125cb565b5b906000526020600020906005020160010160003373ffffffffffffffffffffffffffffffffffffffff1673ffffffffffffffffffffffffffffffffffffffff16815260200190815260200160002060010181905550600182815481106109bf576109be6125cb565b5b9060005260206000209060050201600401339080600181540180825580915050600190039060005260206000200160009091909190916101000a81548173ffffffffffffffffffffffffffffffffffffffff021916908373ffffffffffffffffffffffffffffffffffffffff1602179055505050505050565b60008054906101000a900473ffffffffffffffffffffffffffffffffffffffff1673ffffffffffffffffffffffffffffffffffffffff163373ffffffffffffffffffffffffffffffffffffffff1614610ac6576040517f08c379a0000000000000000000000000000000000000000000000000000000008152600401610abd906126d8565b60405180910390fd5b600180816001815401808255809150500390600052602060002090505060006001808080549050610af791906128eb565b81548110610b0857610b076125cb565b5b9060005260206000209060050201905084816000019080519060200190610b30929190611a97565b5083816002018190555060008160030160006101000a81548173ffffffffffffffffffffffffffffffffffffffff021916908373ffffffffffffffffffffffffffffffffffffffff16021790555060008160030160146101000a81548160ff0219169083151502179055508151835114610ba957600080fd5b6000805b8351811015610d5157848181518110610bc957610bc86125cb565b5b6020026020010151836001016000868481518110610bea57610be96125cb565b5b602002602001015173ffffffffffffffffffffffffffffffffffffffff1673ffffffffffffffffffffffffffffffffffffffff168152602001908152602001600020600001819055506000836001016000868481518110610c4e57610c4d6125cb565b5b602002602001015173ffffffffffffffffffffffffffffffffffffffff1673ffffffffffffffffffffffffffffffffffffffff1681526020019081526020016000206001018190555082600401848281518110610cae57610cad6125cb565b5b60200260200101519080600181540180825580915050600190039060005260206000200160009091909190916101000a81548173ffffffffffffffffffffffffffffffffffffffff021916908373ffffffffffffffffffffffffffffffffffffffff160217905550848181518110610d2957610d286125cb565b5b602002602001015182610d3c919061291f565b91508080610d4990612975565b915050610bad565b5060648114610d95576040517f08c379a0000000000000000000000000000000000000000000000000000000008152600401610d8c90612a30565b60405180910390fd5b505050505050565b6060600080610dab846119e2565b915091506001151581151514610df6576040517f08c379a0000000000000000000000000000000000000000000000000000000008152600401610ded906125ab565b60405180910390fd5b60018281548110610e0a57610e096125cb565b5b9060005260206000209060050201600401805480602002602001604051908101604052809291908181526020018280548015610e9b57602002820191906000526020600020905b8160009054906101000a900473ffffffffffffffffffffffffffffffffffffffff1673ffffffffffffffffffffffffffffffffffffffff1681526020019060010190808311610e51575b505050505092505050919050565b60008054906101000a900473ffffffffffffffffffffffffffffffffffffffff1681565b6000806000610edb846119e2565b915091506001151581151514610f26576040517f08c379a0000000000000000000000000000000000000000000000000000000008152600401610f1d906125ab565b60405180910390fd5b60018281548110610f3a57610f396125cb565b5b906000526020600020906005020160010160003373ffffffffffffffffffffffffffffffffffffffff1673ffffffffffffffffffffffffffffffffffffffff1681526020019081526020016000206001015492505050919050565b6000806000610fa3846119e2565b915091506001151581151514610fee576040517f08c379a0000000000000000000000000000000000000000000000000000000008152600401610fe5906125ab565b60405180910390fd5b60018281548110611002576110016125cb565b5b90600052602060002090600502016002015492505050919050565b600080600061102b846119e2565b915091506001151581151514611076576040517f08c379a000000000000000000000000000000000000000000000000000000000815260040161106d906125ab565b60405180910390fd5b6001828154811061108a576110896125cb565b5b906000526020600020906005020160010160003373ffffffffffffffffffffffffffffffffffffffff1673ffffffffffffffffffffffffffffffffffffffff16815260200190815260200160002060010154600183815481106110f0576110ef6125cb565b5b906000526020600020906005020160010160003373ffffffffffffffffffffffffffffffffffffffff1673ffffffffffffffffffffffffffffffffffffffff1681526020019081526020016000206000015461114c919061291f565b92505050919050565b600080611161846119e2565b9150915060011515811515146111ac576040517f08c379a00000000000000000000000000000000000000000000000000000000081526004016111a3906125ab565b60405180910390fd5b600182815481106111c0576111bf6125cb565b5b906000526020600020906005020160010160003373ffffffffffffffffffffffffffffffffffffffff1673ffffffffffffffffffffffffffffffffffffffff1681526020019081526020016000206001015460018381548110611226576112256125cb565b5b906000526020600020906005020160010160003373ffffffffffffffffffffffffffffffffffffffff1673ffffffffffffffffffffffffffffffffffffffff1681526020019081526020016000206000015410156112b9576040517f08c379a00000000000000000000000000000000000000000000000000000000081526004016112b090612ac2565b60405180910390fd5b6000600183815481106112cf576112ce6125cb565b5b906000526020600020906005020160010160003373ffffffffffffffffffffffffffffffffffffffff1673ffffffffffffffffffffffffffffffffffffffff168152602001908152602001600020600001541415611362576040517f08c379a000000000000000000000000000000000000000000000000000000000815260040161135990612b54565b60405180910390fd5b8260018381548110611377576113766125cb565b5b906000526020600020906005020160010160003373ffffffffffffffffffffffffffffffffffffffff1673ffffffffffffffffffffffffffffffffffffffff1681526020019081526020016000206001018190555082600183815481106113e1576113e06125cb565b5b906000526020600020906005020160010160003373ffffffffffffffffffffffffffffffffffffffff1673ffffffffffffffffffffffffffffffffffffffff168152602001908152602001600020600001600082825461144191906128eb565b9250508190555050505050565b6001818154811061145e57600080fd5b906000526020600020906005020160009150905080600001805461148190612ba3565b80601f01602080910402602001604051908101604052809291908181526020018280546114ad90612ba3565b80156114fa5780601f106114cf576101008083540402835291602001916114fa565b820191906000526020600020905b8154815290600101906020018083116114dd57829003601f168201915b5050505050908060020154908060030160009054906101000a900473ffffffffffffffffffffffffffffffffffffffff16908060030160149054906101000a900460ff16905084565b60606000806000611553856119e2565b91509150600115158115151461159e576040517f08c379a0000000000000000000000000000000000000000000000000000000008152600401611595906125ab565b60405180910390fd5b600080600184815481106115b5576115b46125cb565b5b90600052602060002090600502016004018054905067ffffffffffffffff8111156115e3576115e2611b69565b5b6040519080825280602002602001820160405280156116115781602001602082028036833780820191505090505b50905060005b6001858154811061162b5761162a6125cb565b5b9060005260206000209060050201600401805490508110156117e55760006001868154811061165d5761165c6125cb565b5b9060005260206000209060050201600101600060018881548110611684576116836125cb565b5b906000526020600020906005020160040184815481106116a7576116a66125cb565b5b9060005260206000200160009054906101000a900473ffffffffffffffffffffffffffffffffffffffff1673ffffffffffffffffffffffffffffffffffffffff1673ffffffffffffffffffffffffffffffffffffffff1681526020019081526020016000206001015411156117d2576001858154811061172a576117296125cb565b5b9060005260206000209060050201600401818154811061174d5761174c6125cb565b5b9060005260206000200160009054906101000a900473ffffffffffffffffffffffffffffffffffffffff1682848061178490612975565b955081518110611797576117966125cb565b5b602002602001019073ffffffffffffffffffffffffffffffffffffffff16908173ffffffffffffffffffffffffffffffffffffffff16815250505b80806117dd90612975565b915050611617565b5080829550955050505050915091565b606080600060018054905067ffffffffffffffff81111561181957611818611b69565b5b60405190808252806020026020018201604052801561184c57816020015b60608152602001906001900390816118375790505b509050600060018054905067ffffffffffffffff8111156118705761186f611b69565b5b60405190808252806020026020018201604052801561189e5781602001602082028036833780820191505090505b50905060005b6001805490508110156119d557600181815481106118c5576118c46125cb565b5b906000526020600020906005020160000180546118e190612ba3565b80601f016020809104026020016040519081016040528092919081815260200182805461190d90612ba3565b801561195a5780601f1061192f5761010080835404028352916020019161195a565b820191906000526020600020905b81548152906001019060200180831161193d57829003601f168201915b5050505050838281518110611972576119716125cb565b5b602002602001018190525060018181548110611991576119906125cb565b5b9060005260206000209060050201600201548282815181106119b6576119b56125cb565b5b60200260200101818152505080806119cd90612975565b9150506118a4565b5081819350935050509091565b6000806000805b600180549050811015611a8a5784604051602001611a079190612c11565b6040516020818303038152906040528051906020012060018281548110611a3157611a306125cb565b5b9060005260206000209060050201600001604051602001611a529190612cbc565b604051602081830303815290604052805190602001201415611a775760019150611a8a565b8080611a8290612975565b9150506119e9565b8082935093505050915091565b828054611aa390612ba3565b90600052602060002090601f016020900481019282611ac55760008555611b0c565b82601f10611ade57805160ff1916838001178555611b0c565b82800160010185558215611b0c579182015b82811115611b0b578251825591602001919060010190611af0565b5b509050611b199190611b1d565b5090565b5b80821115611b36576000816000905550600101611b1e565b5090565b6000604051905090565b600080fd5b600080fd5b600080fd5b600080fd5b6000601f19601f8301169050919050565b7f4e487b7100000000000000000000000000000000000000000000000000000000600052604160045260246000fd5b611ba182611b58565b810181811067ffffffffffffffff82111715611bc057611bbf611b69565b5b80604052505050565b6000611bd3611b3a565b9050611bdf8282611b98565b919050565b600067ffffffffffffffff821115611bff57611bfe611b69565b5b611c0882611b58565b9050602081019050919050565b82818337600083830152505050565b6000611c37611c3284611be4565b611bc9565b905082815260208101848484011115611c5357611c52611b53565b5b611c5e848285611c15565b509392505050565b600082601f830112611c7b57611c7a611b4e565b5b8135611c8b848260208601611c24565b91505092915050565b6000819050919050565b611ca781611c94565b8114611cb257600080fd5b50565b600081359050611cc481611c9e565b92915050565b60008060408385031215611ce157611ce0611b44565b5b600083013567ffffffffffffffff811115611cff57611cfe611b49565b5b611d0b85828601611c66565b9250506020611d1c85828601611cb5565b9150509250929050565b600073ffffffffffffffffffffffffffffffffffffffff82169050919050565b6000611d5182611d26565b9050919050565b611d6181611d46565b8114611d6c57600080fd5b50565b600081359050611d7e81611d58565b92915050565b60008060408385031215611d9b57611d9a611b44565b5b600083013567ffffffffffffffff811115611db957611db8611b49565b5b611dc585828601611c66565b9250506020611dd685828601611d6f565b9150509250929050565b600080600060608486031215611df957611df8611b44565b5b600084013567ffffffffffffffff811115611e1757611e16611b49565b5b611e2386828701611c66565b9350506020611e3486828701611cb5565b9250506040611e4586828701611d6f565b9150509250925092565b600067ffffffffffffffff821115611e6a57611e69611b69565b5b602082029050602081019050919050565b600080fd5b6000611e93611e8e84611e4f565b611bc9565b90508083825260208201905060208402830185811115611eb657611eb5611e7b565b5b835b81811015611edf5780611ecb8882611cb5565b845260208401935050602081019050611eb8565b5050509392505050565b600082601f830112611efe57611efd611b4e565b5b8135611f0e848260208601611e80565b91505092915050565b600067ffffffffffffffff821115611f3257611f31611b69565b5b602082029050602081019050919050565b6000611f56611f5184611f17565b611bc9565b90508083825260208201905060208402830185811115611f7957611f78611e7b565b5b835b81811015611fa25780611f8e8882611d6f565b845260208401935050602081019050611f7b565b5050509392505050565b600082601f830112611fc157611fc0611b4e565b5b8135611fd1848260208601611f43565b91505092915050565b60008060008060808587031215611ff457611ff3611b44565b5b600085013567ffffffffffffffff81111561201257612011611b49565b5b61201e87828801611c66565b945050602061202f87828801611cb5565b935050604085013567ffffffffffffffff8111156120505761204f611b49565b5b61205c87828801611ee9565b925050606085013567ffffffffffffffff81111561207d5761207c611b49565b5b61208987828801611fac565b91505092959194509250565b6000602082840312156120ab576120aa611b44565b5b600082013567ffffffffffffffff8111156120c9576120c8611b49565b5b6120d584828501611c66565b91505092915050565b600081519050919050565b600082825260208201905092915050565b6000819050602082019050919050565b61211381611d46565b82525050565b6000612125838361210a565b60208301905092915050565b6000602082019050919050565b6000612149826120de565b61215381856120e9565b935061215e836120fa565b8060005b8381101561218f5781516121768882612119565b975061218183612131565b925050600181019050612162565b5085935050505092915050565b600060208201905081810360008301526121b6818461213e565b905092915050565b6121c781611d46565b82525050565b60006020820190506121e260008301846121be565b92915050565b6121f181611c94565b82525050565b600060208201905061220c60008301846121e8565b92915050565b60006020828403121561222857612227611b44565b5b600061223684828501611cb5565b91505092915050565b600081519050919050565b600082825260208201905092915050565b60005b8381101561227957808201518184015260208101905061225e565b83811115612288576000848401525b50505050565b60006122998261223f565b6122a3818561224a565b93506122b381856020860161225b565b6122bc81611b58565b840191505092915050565b60008115159050919050565b6122dc816122c7565b82525050565b600060808201905081810360008301526122fc818761228e565b905061230b60208301866121e8565b61231860408301856121be565b61232560608301846122d3565b95945050505050565b60006040820190508181036000830152612348818561213e565b905061235760208301846121e8565b9392505050565b600081519050919050565b600082825260208201905092915050565b6000819050602082019050919050565b600082825260208201905092915050565b60006123a68261223f565b6123b0818561238a565b93506123c081856020860161225b565b6123c981611b58565b840191505092915050565b60006123e0838361239b565b905092915050565b6000602082019050919050565b60006124008261235e565b61240a8185612369565b93508360208202850161241c8561237a565b8060005b85811015612458578484038952815161243985826123d4565b9450612444836123e8565b925060208a01995050600181019050612420565b50829750879550505050505092915050565b600081519050919050565b600082825260208201905092915050565b6000819050602082019050919050565b61249f81611c94565b82525050565b60006124b18383612496565b60208301905092915050565b6000602082019050919050565b60006124d58261246a565b6124df8185612475565b93506124ea83612486565b8060005b8381101561251b57815161250288826124a5565b975061250d836124bd565b9250506001810190506124ee565b5085935050505092915050565b6000604082019050818103600083015261254281856123f5565b9050818103602083015261255681846124ca565b90509392505050565b7f417373657420646f6573206e6f742065786973742e0000000000000000000000600082015250565b600061259560158361224a565b91506125a08261255f565b602082019050919050565b600060208201905081810360008301526125c481612588565b9050919050565b7f4e487b7100000000000000000000000000000000000000000000000000000000600052603260045260246000fd5b7f4f6e6c79207474702063616e20736574207368617265207072696365206f662060008201527f616e2041737365742e0000000000000000000000000000000000000000000000602082015250565b600061265660298361224a565b9150612661826125fa565b604082019050919050565b6000602082019050818103600083015261268581612649565b9050919050565b7f4f6e6c79206f776e657220697320616c6c6f7765642e00000000000000000000600082015250565b60006126c260168361224a565b91506126cd8261268c565b602082019050919050565b600060208201905081810360008301526126f1816126b5565b9050919050565b7f54545020616c7265616479207365740000000000000000000000000000000000600082015250565b600061272e600f8361224a565b9150612739826126f8565b602082019050919050565b6000602082019050818103600083015261275d81612721565b9050919050565b7f4e487b7100000000000000000000000000000000000000000000000000000000600052601160045260246000fd5b600061279e82611c94565b91506127a983611c94565b9250817fffffffffffffffffffffffffffffffffffffffffffffffffffffffffffffffff04831182151516156127e2576127e1612764565b5b828202905092915050565b7f596f7520646964206e6f742073656e6420656e6f756768206574686572732e00600082015250565b6000612823601f8361224a565b915061282e826127ed565b602082019050919050565b6000602082019050818103600083015261285281612816565b9050919050565b7f546869732073656c6c6572206973206e6f742073656c6c696e6720746861742060008201527f6d756368207368617265732e0000000000000000000000000000000000000000602082015250565b60006128b5602c8361224a565b91506128c082612859565b604082019050919050565b600060208201905081810360008301526128e4816128a8565b9050919050565b60006128f682611c94565b915061290183611c94565b92508282101561291457612913612764565b5b828203905092915050565b600061292a82611c94565b915061293583611c94565b9250827fffffffffffffffffffffffffffffffffffffffffffffffffffffffffffffffff0382111561296a57612969612764565b5b828201905092915050565b600061298082611c94565b91507fffffffffffffffffffffffffffffffffffffffffffffffffffffffffffffffff8214156129b3576129b2612764565b5b600182019050919050565b7f546f74616c206f662053686172652050657263656e7461676573206d7573742060008201527f657175616c203130302e00000000000000000000000000000000000000000000602082015250565b6000612a1a602a8361224a565b9150612a25826129be565b604082019050919050565b60006020820190508181036000830152612a4981612a0d565b9050919050565b7f596f7520646f206e6f7420686176652074686174206d7563682073686172657360008201527f20746f2073656c6c2e0000000000000000000000000000000000000000000000602082015250565b6000612aac60298361224a565b9150612ab782612a50565b604082019050919050565b60006020820190508181036000830152612adb81612a9f565b9050919050565b7f596f7520617265206e6f7420696e207368617265686f6c64657273206c69737460008201527f206f6620746869732061737365742e0000000000000000000000000000000000602082015250565b6000612b3e602f8361224a565b9150612b4982612ae2565b604082019050919050565b60006020820190508181036000830152612b6d81612b31565b9050919050565b7f4e487b7100000000000000000000000000000000000000000000000000000000600052602260045260246000fd5b60006002820490506001821680612bbb57607f821691505b60208210811415612bcf57612bce612b74565b5b50919050565b600081905092915050565b6000612beb8261223f565b612bf58185612bd5565b9350612c0581856020860161225b565b80840191505092915050565b6000612c1d8284612be0565b915081905092915050565b60008190508160005260206000209050919050565b60008154612c4a81612ba3565b612c548186612bd5565b94506001821660008114612c6f5760018114612c8057612cb3565b60ff19831686528186019350612cb3565b612c8985612c28565b60005b83811015612cab57815481890152600182019150602081019050612c8c565b838801955050505b50505092915050565b6000612cc88284612c3d565b91508190509291505056fea2646970667358221220533351fdc53d87d8cc91ca2676a940dd111d36d3a2c47578d3aaffff940e1dd264736f6c634300080a0033",
  "immutableReferences": {},
  "source": "// SPDX-License-Identifier: MIT\r\npragma solidity >=0.4.22;\r\n\r\ncontract SmartShares {\r\n  address public owner;\r\n  constructor() {\r\n    owner = msg.sender;\r\n  }\r\n\r\n  modifier onlyOwner() {\r\n    require(\r\n      msg.sender == owner, \"Only owner is allowed.\"\r\n    );\r\n    _;\r\n  }\r\n\r\n  struct Share {\r\n    uint percentageOwned;\r\n    uint percentageSelling;\r\n  }\r\n\r\n  struct Asset {\r\n    string name;\r\n    mapping (address => Share) shareHolders;\r\n    uint sharePrice; // price of 1 unit\r\n    address ttp; // ttp to change the unitPrice\r\n    bool isTtpSet;\r\n    // to make mapping iterable\r\n    address[] addresses;\r\n  }\r\n\r\n  Asset[] public assets;\r\n\r\n  function addAsset(string memory name, uint sharePrice, uint[] memory percentages, address[] memory addresses) public onlyOwner {\r\n\r\n    assets.push();\r\n    Asset storage asset = assets[assets.length - 1];\r\n\r\n    asset.name = name;\r\n    asset.sharePrice = sharePrice;\r\n    asset.ttp = address(0);\r\n    asset.isTtpSet = false;\r\n\r\n    require(percentages.length == addresses.length);\r\n\r\n    uint total = 0; // to validate share percentage\r\n    for (uint i = 0; i < addresses.length; i++) {\r\n      asset.shareHolders[addresses[i]].percentageOwned = percentages[i];\r\n      asset.shareHolders[addresses[i]].percentageSelling = 0;\r\n      asset.addresses.push(addresses[i]);\r\n      total += percentages[i];\r\n    }\r\n\r\n    require (\r\n      total == 100, \"Total of Share Percentages must equal 100.\"\r\n    );\r\n  }\r\n\r\n  function listAssets() public view returns (string[] memory, uint[] memory){\r\n    string[] memory names = new string[](assets.length);\r\n    uint[] memory sharePrices = new uint[](assets.length);\r\n    for(uint i = 0; i < assets.length; i++) {\r\n      names[i] = assets[i].name;\r\n      sharePrices[i] = assets[i].sharePrice;\r\n    }\r\n\r\n    return (names, sharePrices);\r\n  }\r\n\r\n  function listShareHolders(string memory name) public view returns(address[] memory){\r\n    (uint i, bool isFound) = searchAssetByName(name);\r\n    require(isFound == true , \"Asset does not exist.\");\r\n    return assets[i].addresses;\r\n  }\r\n\r\n\r\n  function searchAssetByName(string memory name) internal view returns (uint, bool){\r\n    bool isFound = false;\r\n    uint i;\r\n    for(i = 0; i < assets.length; i++) {\r\n      if( keccak256(abi.encodePacked(assets[i].name)) == keccak256(abi.encodePacked(name))) {\r\n        isFound = true;\r\n        break;\r\n      }\r\n    }\r\n    return (i, isFound);\r\n  }\r\n\r\n  function getSharePrice(string memory name) public view returns (uint){\r\n    (uint i, bool isFound) = searchAssetByName(name);\r\n    require(isFound == true , \"Asset does not exist.\");\r\n    return assets[i].sharePrice;\r\n  }\r\n\r\n  function changeSharePrice(string memory name, uint newSharePrice) public {\r\n    (uint i, bool isFound) = searchAssetByName(name);\r\n    require(isFound == true , \"Asset does not exist.\");\r\n    require(\r\n      assets[i].ttp == msg.sender, \"Only ttp can set share price of an Asset.\"\r\n    );\r\n    assets[i].sharePrice = newSharePrice;\r\n  }\r\n\r\n  function addTTP(string memory name, address ttp) public onlyOwner {\r\n    (uint i, bool isFound) = searchAssetByName(name);\r\n    require(isFound == true , \"Asset does not exist.\");\r\n    require(assets[i].isTtpSet == false, \"TTP already set\");\r\n\r\n    assets[i].ttp = ttp;\r\n    assets[i].isTtpSet = true;\r\n  }\r\n\r\n  function getMyShares(string memory name) external view returns (uint)\r\n  {\r\n    (uint i, bool isFound) = searchAssetByName(name);\r\n    require(isFound == true , \"Asset does not exist.\");\r\n\r\n    return assets[i].shareHolders[msg.sender].percentageOwned + assets[i].shareHolders[msg.sender].percentageSelling;\r\n  }\r\n\r\n  function percentageSelling(string memory name) public view returns(uint){\r\n    (uint i, bool isFound) = searchAssetByName(name);\r\n    require(isFound == true , \"Asset does not exist.\");\r\n    return assets[i].shareHolders[msg.sender].percentageSelling;\r\n  }\r\n\r\n  function sellShares(string memory name, uint percentageSelling) public\r\n  {\r\n    (uint i, bool isFound) = searchAssetByName(name);\r\n    require(isFound == true , \"Asset does not exist.\");\r\n\r\n    require(assets[i].shareHolders[msg.sender].percentageOwned >= assets[i].shareHolders[msg.sender].percentageSelling, \"You do not have that much shares to sell.\");\r\n    require(assets[i].shareHolders[msg.sender].percentageOwned != 0,\"You are not in shareholders list of this asset.\" );\r\n\r\n    assets[i].shareHolders[msg.sender].percentageSelling = percentageSelling;\r\n    assets[i].shareHolders[msg.sender].percentageOwned -= percentageSelling;\r\n  }\r\n\r\n  function getShareSellers(string memory name) public view returns(address[] memory, uint){\r\n    (uint i, bool isFound) = searchAssetByName(name);\r\n    require(isFound == true , \"Asset does not exist.\");\r\n\r\n    uint size = 0;\r\n    address[] memory shareSellers = new address[](assets[i].addresses.length);\r\n    for (uint j = 0; j < assets[i].addresses.length; j++) {\r\n      if (assets[i].shareHolders[assets[i].addresses[j]].percentageSelling > 0) {\r\n        shareSellers[size++] = assets[i].addresses[j];\r\n      }\r\n    }\r\n    return (shareSellers, size);\r\n  }\r\n\r\n  function transferShares(string memory name, uint percentage, address seller) external payable {\r\n    (uint i, bool isFound) = searchAssetByName(name);\r\n    require(isFound == true , \"Asset does not exist.\");\r\n\r\n    require(msg.value >= assets[i].sharePrice * 1000000000000000000 * percentage, \"You did not send enough ethers.\");\r\n\r\n    require(assets[i].shareHolders[seller].percentageSelling > percentage, \"This seller is not selling that much shares.\");\r\n\r\n    // Transfer shares from owner [Debit]\r\n    assets[i].shareHolders[seller].percentageSelling -= percentage;\r\n    payable(seller).transfer(msg.value);\r\n    // Transfer shares to buyer [Credit]\r\n    assets[i].shareHolders[msg.sender].percentageOwned = percentage;\r\n    assets[i].shareHolders[msg.sender].percentageSelling = 0;\r\n    assets[i].addresses.push(msg.sender);\r\n    }\r\n}\r\n",
  "sourcePath": "C:\\My Data\\Sem7\\Blockchain\\smart_shares\\contracts\\SmartShares.sol",
  "compiler": {
    "name": "solc",
    "version": "0.8.10+commit.fc410830.Emscripten.clang"
  },
  "schemaVersion": "3.4.3",
  "updatedAt": "2021-12-20T10:32:29.049Z",
  "networkType": "ethereum",
  "devdoc": {
    "kind": "dev",
    "methods": {},
    "version": 1
  },
  "userdoc": {
    "kind": "user",
    "methods": {},
    "version": 1
  }
}